:020000040000FA
:10000000200B00209B030000A7030000A9030000B1
:1000100000000000000000000000000000000000E0
:10002000000000000000000000000000AB03000022
:100030000000000000000000AD030000AF0300005E
:10004000B1030000B1030000B1030000B1030000E0
:10005000B1030000B1030000B1030000430B000036
:10006000B1030000B1030000B1030000B1030000C0
:10007000590B0000B1030000B1030000B103000000
:10008000B1030000B1030000B1030000B1030000A0
:10009000B1030000B1030000B1030000230B000016
:1000A000B1030000B1030000B1030000B103000080
:1000B000B1030000B1030000CB0B0000010C0000F5
:1000C00000F002F800F038F80CA030C80838241806
:1000D0002D18A246671EAB4654465D46AC4201D180
:1000E00000F02AF87E460F3E0FCCB646012633427A
:1000F00000D0FB1AA246AB4633431847D03C000061
:10010000F03C00000023002400250026103A01D313
:1001100078C1FBD8520700D330C100D50B607047BF
:100120001FB50098019903F0E4FB03F0B5F81FBD7B
:1001300010B503F01DF910BD03F07FF91146FFF76C
:10014000EFFF02F0B9F903F087FB03B4FFF7F0FF0C
:1001500003BC03F061FD000070B505460C46164671
:1001600002E00FCC0FC5103E102EFAD2082E02D39B
:1001700003CC03C5083E042E07D301CC01C5361FAE
:1001800003E021782970641C6D1C761EF9D270BDC5
:100190003C4840690121C90408433A4948613A484A
:1001A000406901210904084337494861084640690C
:1001B0000121490408433449486108464069012146
:1001C0008904084330494861084640690121C9044F
:1001D00008432D4948612C48403840694905084387
:1001E0002949403948612848406901218907084365
:1001F0002549486108464069490608432249486143
:1002000008464069091508431F4948610846406986
:100210000121C90208431C4948611B484038406914
:100220008021084318494039486108464069402107
:100230000843154940394861134840692021084363
:10024000114948611048403840690121C9040843F8
:100250000D49403948610846406901214903084376
:1002600009494039486108484068012109040843A8
:10027000054948600846406801214904084302498D
:10028000486070470080044040F00F40F0B51446CD
:100290000025A21C96B2C670360A067102781A7042
:1002A0005B1C42781A705B1C002209E0961C865D7C
:1002B0001E705B1C961C865D7619F5B2561CF2B258
:1002C000042AF3DB002208E00E781E705B1C0E7817
:1002D000491C7619F5B2561CB2B2A242F4DB1D706D
:1002E000F0BD30B503460024002004E01D5C2D194C
:1002F000ECB2451CA8B28842F8DB944201D101203F
:1003000030BD0020FCE730B50B46002105E0047845
:100310005D5C641904704C1CA1B29142F7DB30BDE6
:100320000021FF220632125C002A2AD1FF2201326C
:10033000125A815C174AD1719215125AFF2A03D1C1
:100340000023521C135207E0FF220132125A521CA2
:1003500093B2FF2201321352FF220332135A921E2C
:10036000125A934204D10123FF220632135403E0B0
:100370000023FF22063213540023FF2205321354B8
:1003800005E0044AD27840239A43024BDA70704762
:100390000020704700A00640704709488047094880
:1003A000804709480047FEE7FEE7FEE7FEE7FEE775
:1003B000FEE7000005480649044A064B7047000066
:1003C000452F000099030000C10000002009002013
:1003D000200B0020200900200FB4054910B503AA06
:1003E000029802F029FF10BC08BC04B018470000B6
:1003F0001408002070477047704770477047704777
:10040000FFFFFFFFFFFFFFFFFFFFFFFFFFFFFEFEFE
:100410000EB5012168464170007A04218843011D10
:1004200068460172007A41084900491C6846017219
:10043000007A08218843014668460172007A022149
:100440008843811C68460172007A20218843411844
:1004500068460172FE48019005216846017000F06F
:1004600000FF684600F0D5FEFA480078800880005A
:10047000F84908700EBD0EB54B2040020290F448BA
:100480000190009840084000401C00906946F248E6
:1004900001F01AFBF048007840210843EE4908704B
:1004A0000C2000F0C1FBED48032109024018C06890
:1004B0008021884340210843E84903221202891819
:1004C000C86001200003E54908600020E34980314D
:1004D00008600EBD1CB568460078022188430146BD
:1004E00068460170007841084900491C684601705F
:1004F00080784108490068468170D9480190684673
:10050000407841084900491C684641704078042100
:100510008843014668464170407802218843801C28
:1005200069464870012001F0C3F9CC480321090253
:100530004018406940004008012189070843C74925
:1005400003221202891848610120C005C3490860CE
:100550000020C249803108601CBD0EB5BC48029025
:10056000C010019001218902009888430090202149
:100570000098884320300090102100988843103064
:100580000090009840084000009040210098884367
:100590000090082100988843083000904901009895
:1005A00088430090490000988843009002210098F9
:1005B0008843801C00908902009888430090802125
:1005C00000988843009049010098884340180090A3
:1005D00004210098884300906946A24801F0BFFCBE
:1005E0000EBD00B587B0A048006901210904084389
:1005F0009D4908619D488068C90308439B498860FC
:100600006846C088FC21884301460C316846C18099
:10061000C088810889006846C180C0880F2109030D
:1006200088430321090341186846C180C088072117
:10063000490288430121890241186846C180C08867
:10064000FF210131884301466846C180808801212D
:10065000C903884301466846818080880821884311
:100660004118684681808088102188434118684677
:100670008180808880218843014668468180808807
:100680002021884301466846818080880121090332
:100690008843014668468180808801214903884358
:1006A000411868468180808801218902884301467B
:1006B0006846818080880121490288430146684656
:1006C0008180808841084900491C68468180808873
:1006D0000221884301466846818080880121890380
:1006E000884341186846818080880121C902884377
:1006F0000146684681808088042188430146684617
:1007000081808088FF2101318843014668468180CD
:10071000808840218843694688800020C043059036
:10072000069001A9524800F0EBFD4C480321090254
:100730004018C06940004008012189070843474923
:10074000032212028918C861D005444908600020BC
:10075000424980310860414811464018C069012172
:10076000C9058843491008433C498918C8610120DC
:1007700080073A490860002038498031086007B096
:1007800000BD10B5384840690121C9060843364903
:1007900048610846C068052108433349C8603548A8
:1007A00000780221884333490870084600781021F8
:1007B00008433049087008460078042108432D4951
:1007C000087008460078022108432A49087007206B
:1007D00000F02AFA2148032109024018406840002D
:1007E00040080121890708431C4903221202891885
:1007F000486080201949086000201849803108604D
:1008000010BD1CB568460088410849006846018053
:10081000008802218843014668460180008808213B
:1008200088430146684601800088102188430146BC
:10083000684601800088202188430146684601807F
:10084000008840218843014668460180008813E003
:1008500000127A000040064000A0064000E100E0DF
:100860007F380100006007400080044040F00F40E6
:100870000040024000100340FF21813188430146BF
:100880008031684601800088012149028843014681
:10089000684601806421418001F090FA1CBDE64861
:1008A000006904210843E4490861084600690221FF
:1008B0008843E149086130BF704710B572B6DF4820
:1008C000406802218843DD494860084640680421A9
:1008D0000843DA4948600846406901214903084352
:1008E000D64948610846406808210843D349486012
:1008F000FFF78EFDFFF74CFCFFF7BDFDFFF7EAFDAC
:10090000FFF73FFFFFF76DFE62B610BD002200212A
:1009100000BF08E0002201E000BF521C01239B023F
:100920009A42F9D3491C8142F4D3704708B5024674
:1009300072B600BFC248C078202318400028F9D002
:10094000BF48417100BFBE48C078802318400028CE
:10095000F9D0BB484379009362B66846007808BD79
:1009600070B504460D46FF20F330005D012801D12B
:10097000002070BDFF21F131095D09010819102225
:10098000294602F06BFBFF20F130005D1E2804D1E8
:100990000021FF20F130015507E0FF20F130005D1C
:1009A000401CC1B2FF20F13001550021FF20F4307E
:1009B0000155C01E015D401C005D814204D1012132
:1009C000FF20F330015503E00021FF20F3300155F3
:1009D0009C48C17907221143C17100BF0120C8E7BB
:1009E00070B504460D46FF20F430005D012801D1AA
:1009F000002070BDFF20F230005D000101191022BF
:100A0000284602F02BFBFF20F230005D1E2804D1A7
:100A10000021FF20F230015507E0FF20F230005D99
:100A2000401CC1B2FF20F23001550021FF20F330FD
:100A30000155801E015D401C005D814204D10121F1
:100A4000FF20F430015503E00021FF20F430015570
:100A50000120CEE77FB50446002500262068C00FA0
:100A6000C007002800D001252079012800D10126E7
:100A7000217B68460173217C4173082201A8A1688B
:100A800002F0ECFA2068C000010E68460170E80030
:100A900021688903490F08432168490BE02211406E
:100AA0000843C1B26846417020884004010E684680
:100AB000817020784006000E30436946C870624855
:100AC000FFF74EFF04B070BD10B586B0044600209D
:100AD000019001A95B4800F033FE002801D106B067
:100AE00010BD082202A9A06802F0B8FA019820609F
:100AF0006846007C20736846407C20746846807C91
:100B0000012801D1207101E0002020716846C07CDD
:100B1000012804D10121C907206808432060012071
:100B2000DDE710B501F036FD0120484902018918C2
:100B3000C96801221143454A0301D218D16000BFA0
:100B400010BD10B542A0FFF747FC434800780421D0
:100B500008434149087010BD1CB500210191009166
:100B60003E48C07880210840002817D03B480079D3
:100B70000840002812D001A9394802F0DFF8012806
:100B800005D136486A461179C17100BF06E0334885
:100B9000C17880229143C17000BF00BF2F48007907
:100BA0002021084000280FD000BF2C48C0790090B9
:100BB0002C4B2D4A0121684602F0F4F82748407971
:100BC00040210843254948711CBD00B587B000206D
:100BD000009001906846049002A8FFF775FF02A8F4
:100BE00001F0B1FB1748017901221143017100BFE7
:100BF00000BF017880221143017000BF07B000BD23
:100C00001FB569461048FFF7EBFE012804D169467D
:100C10000C4800F073FD06E00A48C179C908C90014
:100C2000C17100BF00BF1FBDC206D20E012191409D
:100C30000E4A11607047000000ED00E000800440A3
:100C4000007007400040024000F8FF1F00710340A1
:100C5000495251210A0000000010034000A0064044
:100C600002FCFF1F232B0000BC06002000E100E077
:100C7000FE4A811A904215D00ADC202832D07D210C
:100C80004901411A16D07D225201891A31D108E05A
:100C9000F74A8918002915D07D225201891A28D1D6
:100CA00018E000BFF3490978382291431831F14A1E
:100CB00011701FE0EF490978382291431031ED4A55
:100CC000117017E0EB490978382291432031E94A45
:100CD00011700FE0E7490978382291432031E54A45
:100CE000117007E0E349097838229143E14A117015
:100CF00000E000BF00BF7047002102789207D20FCA
:100D0000002A01D0022211430278D207D20F002A12
:100D100001D00422114302781207D20F002A01D019
:100D2000202211430278D206D20F002A01D01022CD
:100D3000114302785207D20F002A01D080221143BA
:100D4000CD4A117002789206D20F002A06D000BF59
:100D5000C94A1278D207D20F002AF9D0704700B5DD
:100D6000034618460830FFF7C7FF5868FFF780FFB3
:100D7000C048007804218843BE49087000BFBD48C0
:100D80000079102108400028F9D100BFB948007946
:100D9000402108400028F9D0B6484078E021884337
:100DA000B44948700846007980210843B149087168
:100DB00000BD0146AF480078C02290434030AD4AA4
:100DC00010701046407810229043AA4A507000BF1D
:100DD000A84800790C22104080080128F8D1A548C5
:100DE0004078E0229043A34A507010460079802258
:100DF0001043A04A1071704700B5034618460830EA
:100E0000FFF77AFF9B4800780421884399490870CE
:100E100008460078C021884380309649087008460B
:100E20004078102188439349487000BF9148007969
:100E30000C21084080080228F8D100BF8D480079B5
:100E4000102108400028F9D18A484078E0218843E1
:100E5000884948700846007980210843854908710F
:100E600000BD00B5034618460830FFF745FF586837
:100E7000FFF7FEFE7F480078042188437D49087013
:100E800008460078C021884380307A4908700846B7
:100E90004078102188437749487000BF7548007931
:100EA0000C21084080080228F8D100BF7148007961
:100EB000102108400028F9D16E484078E02188438D
:100EC0006C494870084600798021084369490871D7
:100ED00000BD00B5034618460830FFF70DFF5868FF
:100EE000FFF7C6FE63480078042188436149087013
:100EF00000BF60480079102108400028F9D100BFE8
:100F00005C480079402108400028F9D059484078D1
:100F1000E0218843574948700846007980210843FA
:100F20005449087100BD10B50446524800780421A8
:100F300008435049087000BF4E480079102108400E
:100F40000028F9D000BF4B48007940210840002814
:100F5000F9D048480079802108434649087108467D
:100F60004078E02188434349487000F0BEF910BD45
:100F700010B504463F480079802108433D49087177
:100F800008460078042108433A490870084600786A
:100F9000C021884340303749087008464078102106
:100FA00088433449487000BF324800791021084016
:100FB0000028F9D000BF2F4800790C210840800894
:100FC0000128F8D12B484078E0218843294948700E
:100FD00000F08BF910BD01462648007980221043AD
:100FE000244A107110460078C02290438030214A74
:100FF000107010464078102290431E4A507000BF77
:101000001C4800790C22104080080228F8D11948A9
:101010004078E0229043174A5070704700B503466D
:1010200018460830FFF768FE12480078042188430C
:101030001049087008460078C021884380300D4967
:10104000087000BF0B4800790C2108408008022876
:10105000F8D100BF07480079102108400028F9D1D5
:1010600004484078E0218843024907E01027000047
:1010700090E8FFFF0040064000500640487000BD69
:1010800000B5034618460830FFF736FE9A48007848
:10109000042188439849087008460078C021884395
:1010A0009549087000BF944800790C210840002839
:1010B000F9D100BF90480079102108400028F9D1EB
:1010C0008D484078E02188438B4948700846007974
:1010D000802108438849087100BD8749497810225A
:1010E0001143854A517070470146834800780422B5
:1010F0001043814A107010460078C02290437E4A07
:10110000107000BF7C4800790C2210400028F9D1F3
:1011100000BF79480079102210400028F9D07648A5
:101120004078E0229043744A507010460079802243
:101130001043714A1071704710B504466E4800782C
:10114000042108436C49087008460078C021884390
:1011500040306949087000BF674800790C21084099
:1011600080080128F8D100BF6348007910210840A9
:101170000028F9D060484078E02188435E494870F3
:1011800000F0B3F810BD01465B480078C0229043E0
:10119000594A107000BF584800790C2210400028AE
:1011A000F9D155484078E0229043534A5070104698
:1011B000007980221043504A1071704710B50446E0
:1011C0004D480078042108434B49087008460078D0
:1011D000C02188434849087000BF474800790C2166
:1011E00008400028F9D100BF434800791021084089
:1011F0000028F9D040484078E02188433E494870B3
:1012000008460079802108433B49087100F06DF8D9
:1012100010BD3949497810221143374A517070473F
:101220003549497810229143334A51707047324909
:10123000497810229143304A517070472E4A90707D
:101240001146C97849084900C205D20F11432A4AFC
:10125000D17000BF28490979402211400029F9D0F6
:10126000704710B50446207802280DD1207A10214D
:10127000884310302072207A202188432030207249
:101280002046FFF76CFD1CE02078032807D1207A68
:101290001021884320722046FFF71BFE11E02078C2
:1012A000052808D1207A102188431030207220466A
:1012B000FFF7D7FD05E010484078E02188430E494C
:1012C000487010BD04200C4908702020487054203C
:1012D00088700020C87000BF074800795028FBD1F3
:1012E0007047002005490870704704480078802145
:1012F000884302490870704700400640005006408D
:10130000F8B504460D460026F94840690121C90395
:101310000843F7494861204600F0AFFA2878C00634
:10132000C00F002803D06078402108436070204639
:1013300000F099FA00BF204600F09AFA0028FAD08F
:1013400000BFE87A2074A97A6174697AA174297A55
:10135000E17400BF00BFE87C2075A97C6175697CE1
:10136000A175297CE17500BF00BFE87B2076A97BD1
:101370006176697BA176297BE17600BF00BFE87DBD
:101380002077A97D6177697DA177297DE17700BF0D
:101390002046698800916A4611888901C02211405F
:1013A0006A4612881206920E114381706A461188AD
:1013B000090B12881205520F120170231A401143B3
:1013C000C1706A461188C905C90F002904D0C178C7
:1013D00080221143C17003E0C17880229143C17023
:1013E00000BF28780006C00F002806D000BF607834
:1013F00010210843607000BF06E000BF6078102134
:101400008843607000BF00BF28788006C00F0028A6
:1014100006D000BF607820210843607000BF06E05E
:1014200000BF607820218843607000BF00BF28782B
:10143000C007C00F002806D000BF20782021084335
:10144000207000BF06E000BF207820218843207074
:1014500000BF00BF28784006C00F002806D000BF9C
:10146000607804210843607000BF06E000BF607828
:1014700004218843607000BF00BF2888C00B00288B
:1014800006D000BF607808210843607000BF06E006
:1014900000BF607808218843607000BF00BF2879D2
:1014A000010130221140E17200BF00BF20784008E6
:1014B0004000207000BF00BF204600F0D9F900288E
:1014C000FAD12888C004C00F002806D000BF607978
:1014D00002210843607100BF06E000BF607902216D
:1014E0008843607100BF00BF28888004C00F0028B7
:1014F00009D000BF607901210843607100BF1E2040
:1015000000F0AAF90CE000BF60794008400060716B
:1015100000BF1E2001218140764A116000BF00BF3C
:1015200028884005C00F002807D000BF607930210F
:101530000843607100BF012606E000BF60793021DA
:101540008843607100BF00BF28888005C00F002855
:1015500007D000BF607940210843607100BF0126B9
:1015600006E000BF607940218843607100BF00BF82
:1015700028788007C00F002806D000BF20780821F7
:101580000843207000BF06E000BF20780821884390
:10159000207000BF00BF28884004C00F002807D07B
:1015A00000BFE07907210843E07100BF012606E093
:1015B00000BFE079C008C000E07100BF00BF28880C
:1015C0000005C00F002807D000BF60790C21084338
:1015D000607100BF012606E000BF60790C218843DE
:1015E000607100BF00BF2888C005C00F002804D06C
:1015F000204600F047F9012606E000BF607980210F
:101600008843607100BF00BF28784007C00F0028E2
:1016100003D0204600F03BF906E000BF207804210B
:101620008843207000BF00BF002E02D01F2000F0B2
:1016300013F928780007C00F002802D0204600F0D8
:101640001CF9F8BD10B50446204600F00CF900BFA7
:10165000204600F00DF90028FAD0012010BD10B589
:1016600004462548FFF7EEFF002800D110BD2248B0
:10167000417880229143417000BF1D4840691102AA
:1016800088431B4948610120F0E710B50446204615
:1016900000F0EEF8002801D0002010BD00BF207936
:1016A00080210840002805D000BF20790843207120
:1016B00000BF00BF204600F0EAF8204600F0E2F844
:1016C00000BF207802210843207000BF0120E4E71A
:1016D000014600BF087802229043087000BF00BF97
:1016E00000BF4878022210400028F9D1012070473D
:1016F0000080044080E100E00040024070B50446F4
:101700000E4600BF644880794007400F0546002D13
:1017100000D170BD72B600BF6807400FA07200BF55
:101720000E2231462046303001F098FC00BFA17AED
:101730004807400F00BFA07100BF62B60120E8E774
:101740003CB5024600BF1079C007C00F002869D021
:1017500000BF2120805C019000BF2320845C0094A6
:10176000684600790007C00FC87368460078C00754
:10177000C00F887300BF2024A45C6405FF256D059D
:101780002C4020460C68AC4304430C600724A4049E
:101790000868A0436C4624796409A4040725AD04B5
:1017A0002C4020430860EC100868A0436C46247964
:1017B000E403ED102C402043086000BF2224A45C09
:1017C000E401FF25ED012C4020460C68AC430443A6
:1017D0000C600868C009C0016C4624786408204386
:1017E00008602C20805C0007000F0873002306E0CF
:1017F00010462430C45C081DC454581CC3B2087B76
:101800009842F5DC00BF3E20805C087400BF3F209A
:10181000805C487400BF107901242043107100BF20
:1018200001203CBD0020FCE71C49086070471C49B2
:101830000860704710B519480068002802D01749A1
:101840000868804710BD10B515480068002802D010
:1018500013490868804710BDC206D20E012191408D
:10186000104A1160704701780122114301707047DE
:1018700001464878C007C00F704741788022114365
:10188000417070474179802211434171704701785E
:10189000042211430170704700400240F4F9FF1F19
:1018A000F8F9FF1F00E100E0824A0301D1507047C0
:1018B00070B504460D4680484069022108437E49C0
:1018C00048612878C007C00F002808D000BF7B48B7
:1018D0000068012108437949086000BF00BF2878EB
:1018E0008007C00F002808D100BF7448006802219B
:1018F00088437249086000BF00BF20466968FFF74F
:10190000D3FF68788007C00F002815D0002C03D0C3
:10191000172000F093F802E0162000F08FF800BFC7
:10192000644821014018806802210843614922016E
:101930008918886000BF02E0162000F086F86878F9
:101940004007C00F00280CD000BF5A4821014018A2
:10195000806804210843574922018918886000BF24
:1019600000BF6878C007C00F00280CD000BF5148E6
:10197000210140188068012108434E49220189183D
:10198000886000BF00BF70BD82004D4B995070470A
:1019900010B5162000F059F8172000F056F8002175
:1019A0000846FFF781FF00210120FFF77DFF00209F
:1019B00000F053F8012000F050F8002000F058F833
:1019C000012000F055F8002000F05DF8012000F043
:1019D0005AF8002000F062F8012000F05FF800BF24
:1019E00036480068400840003449086000BF00BF26
:1019F00008460068022108433049086000BF2E48AD
:101A00004069022188432C49486110BD10B500206F
:101A100000F044F82A480068002802D028490868E5
:101A2000804710BD10B5012000F038F82448406808
:101A3000002802D022494868804710BDC206D20E55
:101A4000012191401F4A11607047C206D20E012148
:101A500091401C4A80321160704716490201891872
:101A600089684A08520013490301C9188A607047FF
:101A70001049020189188968022291430D4A030125
:101A8000D218916070470B490201891889680422B5
:101A90009143084A0301D218916070470549020139
:101AA0008918C96801221143024A0301D218D16082
:101AB0007047000000710340008004400070034044
:101AC000FCF9FF1F00E100E0FEB504460D46686822
:101AD0000190A86800909848844207D197484069CF
:101AE0000121090508439549486111E09448844261
:101AF00007D1924840690121490508438F4948614F
:101B000006E08E4840690121890508438B494861F8
:101B1000E0780C218843E0700020A07001990A0948
:101B2000009949085018009901F0D9FA86B2207836
:101B300047097F01F004C00E384320706670E078DA
:101B40000C210843E070FEBD014600BF0879202249
:101B500010400028FAD0C879704700BF027980236E
:101B60001A40002AFAD0C1717047FEB504460D46EE
:101B7000286800906F68009909097A088818394622
:101B800001F0ADFA86B22078400940010190F004DE
:101B9000C00E0199084320706670E0780C2108435C
:101BA000E070FEBD002904D1C27880231A43C270C0
:101BB0002FE0012904D1C27840231A43C27028E0E3
:101BC000022904D1C27820231A43C27021E00329DC
:101BD00004D1C27810231A43C2701AE0042904D138
:101BE000827908231A43827113E0052904D182798E
:101BF00004231A4382710CE0062904D1827902235E
:101C00001A43827105E0072903D1827902231A431E
:101C100082717047002904D1C27880239A43C27030
:101C20002FE0012904D1C27840239A43C27028E0F2
:101C3000022904D1C27820239A43C27021E00329EB
:101C400004D1C27810239A43C2701AE0042904D147
:101C5000827908239A43827113E0052904D182799D
:101C600004239A4382710CE0062904D1827902236D
:101C70009A43827105E0072903D1827902239A43AE
:101C80008271704701460020487902020B791A439D
:101C90001046704770B505460C4600262846FFF7EB
:101CA000F1FF06460120A0403040C0B270BD70B5C3
:101CB0000B46144600220BE0995C00BF00BF05797B
:101CC00080263540002DF9D000BFC17100BF521CE5
:101CD000A242F1D370BD70B50B46144600220BE052
:101CE00000BF00BF057920263540002DF9D000BF88
:101CF000C17900BF9954521CA242F1D370BD00BFFC
:101D000000BF0179402211400029F9D070470D49E8
:101D10000860704710B508480A490968884710BD2F
:101D200010B5074807490968884710BD10B506482F
:101D300004490968884710BD00A00640008004409F
:101D400000B0064004FAFF1F00C0064030B5644CE6
:101D500020786178A288E38880250446AC43204639
:101D6000604C5F4D6C80604C6C802C466170A28032
:101D7000E380207030BD30B5594C20786178A2885E
:101D8000E38880250446AC43204620242043554C5C
:101D9000534D6C80544C6C802C466170A280E38063
:101DA000207030BD4E490878802108434D494C4A87
:101DB00051804D49518011460870704770B580219F
:101DC0000022438884880578AD07ED0F002D03D0ED
:101DD00080260D46B54329460578ED07ED0F002D09
:101DE00001D04025294305782D07ED0F002D01D0A6
:101DF000012529430578ED06ED0F002D01D00425BE
:101E0000294305786D07ED0F002D01D002252943E8
:101E100005786D06ED0F002D01D0202529430578AA
:101E2000AD06ED0F002D01D080252A430588AD05B4
:101E3000ED0F002D01D010252A430588ED05AD0FCB
:101E40002A43284D264E7580274D758035466A7089
:101E50006B711D1235713546EC712512B571354621
:101E6000297070BD1F481E4948801F4848800120C6
:101E70004870800288800020C880802008707047E9
:101E800072B61A48164948801948488062B67047A9
:101E900030B5134C20786178A288E3882024204351
:101EA000104C0F4D6C80104C6C802C466170A280E1
:101EB000E380207030BD30B5094C20786178A2886D
:101EC000E38820250446AC432046064C044D6C8034
:101ED000054C6C802C466170A280E380207030BD80
:101EE00000200540C5200000D9280000A6020000FF
:101EF000B4800000F7B582B006460F463846049914
:101F000001F0EDF8019000200090002515E000247C
:101F10000AE0691C0198C840611C884202D801206F
:101F2000009003E0601CC4B2072CF2DD00BF0098F3
:101F3000002800D003E0681CC5B2082DE7DD00BF13
:101F4000082C00DB0724082D00DD08252001702166
:101F500008402907090F0843B07005B0F0BD70B5FF
:101F600004460D469A48844207D19A4840690121A7
:101F7000890408439749486106E096484069012171
:101F8000C9040843934948612878C007C00F002856
:101F90000FD000BF207880210843207000BF8C48FC
:101FA000844203D10A2000F006F902E00B2000F081
:101FB00002F928784007C00F00280FD000BF207812
:101FC00020210843207000BF8148844203D10A20A9
:101FD00000F0F1F802E00B2000F0EDF8287800079F
:101FE000C00F002806D000BF2078102108432070C1
:101FF00000BF06E000BF207810218843207000BF9A
:1020000000BF2878C006C00F00280ED0204601214E
:10201000002904D0027808231A43027003E00278F2
:1020200008239A43027000BF00BF28788006C00FC3
:1020300000280ED020460121002904D00278042374
:102040001A43027003E0027804239A43027000BF2F
:1020500000BF28780006C00F002806D000BF2078F7
:1020600001210843207000BF00BF2888C005C00FB1
:10207000002806D000BF607880210843607000BF50
:1020800000BF28888005C00F002802D0204600F03D
:1020900099F828784006C00F002808D000BF2078A3
:1020A00002210843207000BF204600F08BF82888EA
:1020B0000005C00F002806D000BF6078012108434A
:1020C000607000BF00BF28884005C00F002806D000
:1020D00000BF607808210843607000BF00BF2888F7
:1020E000C004C00F002806D000BF6078022108435A
:1020F000607000BF00BF28780007C00F002804D020
:1021000020466A68A968FFF7F5FE28788007C00FA7
:10211000002806D000BF207840210843207000BF6F
:1021200000BF70BDF0B504460D460026002B01D15E
:102130003046F0BD002114E000BF00BFE07820274A
:1021400038400028F9D0505C607100BF00BF00BF6C
:10215000E078802738400028F9D000BF60796854C3
:10216000491C9942E8D33046E3E70422027000227A
:1021700042708270C271002100E0491C6429FCDBBE
:10218000704710B5124BC31A1A0B9300124CE15052
:1021900010BD10B510480068002802D00E4908682C
:1021A000804710BD10B50C484068002802D00A498D
:1021B0004868804710BDC206D20E01219140074AEF
:1021C0001160704741781022114341707047000040
:1021D000006007400080044008FAFF1F00E100E0B3
:1021E0000FB410B50446FF20E330005D012804D190
:1021F000002010BC08BC04B01847FF20E130005D8F
:102200000C22504303992150FF22E132125D0C232E
:102210005A431219101D0822059900F01FFFFF20D4
:10222000E130005D272804D10021FF20E130015575
:1022300007E0FF20E130005D401CC1B2FF20E1302B
:102240000155FF20E530005D401CC1B2FF20E530A4
:1022500001550021401E0155C01E015D401C005D5E
:10226000814204D10121FF20E330015503E0002128
:10227000FF20E33001550120BBE70246FF20E43098
:10228000805C012801D100207047FF20E230805C93
:102290000C23584310580860FF20E230805C5843FC
:1022A000831858689B688B604860FF20E230805C30
:1022B000272804D10023FF20E230835407E0FF20C9
:1022C000E230805C401CC3B2FF20E2308354FF2028
:1022D000E530805C401EC3B2FF20E530835400230C
:1022E000801E8354401E835C401E805C834204D168
:1022F0000123FF20E430835403E00023FF20E43077
:1023000083540120C0E7FEB506460C461546FF2063
:10231000E430805D012801D10020FEBD0CE069465B
:102320003046FFF7AAFF0C226946204600F096FED1
:102330000C3428880C302880FF20E430805D002891
:10234000EDD00120E9E7F0B585B005460027002073
:102350000390002600242868400040082860286870
:1023600002906846C77A867A447A007A03901A2FD8
:1023700061D14C490978039888425CD1212C5ADA02
:10238000002C58DDF0203040C02854D13007000F19
:10239000042850DA3007000F00284CDD3007000F0A
:1023A000012804D002280CD0032822D115E0621E97
:1023B00018235A433C4BD0180622A96800F04EFE61
:1023C00018E0621E18235A43374BD21810460830C3
:1023D0000822A96800F042FE0CE0621E18235A434E
:1023E000314BD218104610300822A96800F036FE92
:1023F00000E000BF00BF601E2C49085C0421884338
:10240000001D611E294A5054515C8906490F32074C
:10241000120F521E012393401943C9003822114064
:102420000846611E214A515C382291430143621ED5
:102430001E4B995424E01A2F22D11A490978039887
:1024400088421DD1212C1BDA002C19DDF0203040F0
:10245000A02815D13007000F0B2811DA3007000F24
:1024600004280DDD621E30235A43114BD318320766
:10247000120F521FD20098180822A96800F0EEFD32
:10248000601E0A49085C8007C00F002808D029692F
:10249000E86801910090074829460EC9FFF7A0FEA1
:1024A00005B0F0BD10FAFF1F40FDFF1F20FDFF1F0C
:1024B0004000002014FAFF1F86B0FEF7FEF9052148
:1024C0002F4800F09DF800230122FF21F531184626
:1024D00000F0B4F8002301226421032000F0AEF8DC
:1024E00000230122FF21F531104600F0A7F8002358
:1024F00001227D210901042000F0A0F80298400F7C
:1025000040072049401802901F48406801210904F3
:1025100008431D4948600846406801218904084372
:102520001949486008464068012149040843164992
:10253000486000BF002000F0B9F8012803D113491A
:10254000134800F0F6F9032000F0B0F8012801D19B
:10255000FDF71EFF012000F0A9F8012801D100F0CD
:10256000B7F8022000F0A2F8012801D100F05CF9D0
:10257000042000F09BF80128DCD100F09AFAD9E79A
:102580004C0600207856341240F00F4002FCFF1F2A
:1025900014FAFF1F10B5002400BF2EE020014B49A4
:1025A00040188078012826D12001085A401E80B2A8
:1025B0002101464A505200281DD1200111464018E1
:1025C000407B002802D121018918887020013F49F1
:1025D0004018808821013D4A50520120210189186C
:1025E00008732001114640188068002803D021019B
:1025F000891888688047601CC4B2052CCEDB10BDEA
:1026000010B50246002072B6002013E0002304013A
:10261000A418A370040113530401A4182373040124
:10262000A418A3600401A418A3800401A418637370
:10263000431CD8B28842E9DB62B610BDF8B5044647
:102640000D4616461F46052C21DA72B601202101DF
:102650001E4A891888700A21284600F040FD210191
:102660001A4A50520A21284600F039FD2101174A22
:1026700089188880200111464018876000202101B8
:1026800089180873200111464018467362B6F8BDD8
:1026900005280ADA002102010C4BD21891700201C0
:1026A000D21891600201D2181173704710B501461B
:1026B0000020052909DA0A01044BD218107B0022F8
:1026C0000B01024C1B191A7362B610BD4C06002098
:1026D000FEB50025022686210191002100910020EF
:1026E00047E0FE49095CC907C90F00293ED0FB49F4
:1026F000095C4907C90F002938D0F849095C042250
:102700009143F64A1154F649095C032928DA182145
:102710004143F44A8A18D17892780902114300297A
:1027200015D018214143EF4A8918097900290ED0A4
:102730001821414389184979002908D018214143BB
:102740008A185178127809021143002905D1E44909
:10275000095C491CE24A115409E00421E04A115481
:10276000012181400D43314619318EB200BF411C19
:1027700088B22028B5DB002D55D00322DA49DB488A
:1027800000F0C9FA0296022202A9D84800F0C3FA62
:10279000022202A901A8FDF7B6FDD549D34800F0F1
:1027A00097FA0122D24901A8FDF7ADFD002434E0DB
:1027B0000120A040284000282DD0601CC0B200900D
:1027C0006946CA4800F084FA0122694601A8FDF76B
:1027D0009AFD0822C349C54800F09DFA0822C14964
:1027E00001A8FDF790FD0822BE490831BF4800F05E
:1027F00092FA0822BB49083101A8FDF784FD08229E
:10280000B8491031B94800F086FA0822B5491031AC
:1028100001A8FDF778FD601C84B2202CC8DB01A95B
:10282000B24800F055FAFEBD3EB502258621019161
:10283000002100910322AC49AC4800F06CFAAD488D
:102840000078FF283AD131204001281885B202953E
:10285000022202A9A54800F05EFA022202A901A8FC
:10286000FDF751FDA449A14800F032FA0122A24926
:1028700001A8FDF748FD00241DE0601CC0B20090D7
:1028800069469A4800F024FA0122694601A8FDF73A
:102890003AFD30206043994A81183022934800F075
:1028A0003AFA30206043954A8118302201A8FDF79A
:1028B0002AFD601C84B2202CDFDB35E02846313055
:1028C00085B20295022202A9884800F024FA022269
:1028D00002A901A8FDF717FD8749844800F0F8F91F
:1028E0000122854901A8FDF70EFD82497F4800F0CD
:1028F000EFF901227F4901A8FDF705FD7D48007829
:10290000401E302250437D4A81183022774800F023
:1029100002FA78480078401E30225043774A8118E6
:10292000302201A8FDF7EFFC01A9704800F0D0F9B2
:102930003EBDF3B585B004468620049002260025EE
:10294000FF20E430005D012801D107B0F0BD032273
:102950006549069800F0DFF9FF20E530055D0C20A1
:102960006843801986B2009602226946069800F0F4
:10297000D2F90222694604A8FDF7C5FC6049069811
:1029800000F0A6F901225E4904A8FDF7BCFC00276F
:102990000FE001A92046FFF770FC0C2201A9069860
:1029A00000F0B9F90C2201A904A8FDF7ACFC781CD1
:1029B000C7B2AF42EDDB04A9069800F089F900BF69
:1029C000C3E7F0B589B004460D46164600200290D4
:1029D00003904C4F202C01DD09B0F0BD0D2168465D
:1029E000C1712021817148480178684641710471A4
:1029F000019804900121C907049808430490082114
:102A0000684601770021017508A8017002A80690A8
:102A10000F21684601724572867200BF04A8FEF756
:102A200019F8012804D03846791E8FB20028F5D154
:102A30000120D1E770B588B004460D460020019012
:102A40000290304E202C01DD08B070BD0D2168468B
:102A5000C170402181702C48017868464170047033
:102A6000009803900121C9070398084303900821A7
:102A70006846017600210174017701A80590684637
:102A800045710F21017100BF03A8FDF7E3FF012885
:102A900004D03046711E8EB20028F5D1601E0F4959
:102AA000085C40084000401C611E0C4A5054012044
:102AB000CAE710B5002431E00848005DC007C00F28
:102AC00000280AD00548005D8006400F072804D082
:102AD000611CC8B26421FFF7ADFF17E020FDFF1FA6
:102AE0009C06002040FDFF1FFCFBFF1F02FCFF1F98
:102AF000FFFBFF1F11FAFF1F00FCFF1F400000201B
:102B000001FCFF1FFFFF000010FAFF1F5348005D8C
:102B10003821884351490855601C84B2202CCBDBF6
:102B200010BDF0B58BB0044600200A9000254C483B
:102B300000906079112806D0122817D0212836D0AD
:102B4000312812D150E0A079FF280AD1012705E0F1
:102B5000F8B26421FFF76EFF781C87B2212FF7DBF4
:102B600003E0A0796421FFF765FF74E0A079FF28F6
:102B70000DD13C490870012706E0F8B20A22012174
:102B8000FFF71FFF781C87B2212FF6DB07E0A07943
:102B900034490870A0790A220121FFF712FF0023AF
:102BA0001A46FF21F5310220FFF748FD53E0A079D6
:102BB000FF280DD1002008E02849095C022291433A
:102BC000891C264A1154411C88B22028F4DB0AE0F3
:102BD000A079401E2149085C02218843811CA0790C
:102BE000401E1E4A115436E0082168460177002134
:102BF000017508A80170E6782179099109990902FF
:102C00008919881E0C2100F074FA80B20A90A51D63
:102C100000271CE00422294601A800F01FFA0198B1
:102C200004900121C907049808430490281D0690C8
:102C300000BF04A8FDF70EFF012805D00098411E33
:102C400089B200910028F4D10C35781C87B20A981B
:102C50008742DFDB00BF00BF0BB0F0BD20FDFF1FD0
:102C6000FFFF000011FAFF1F0246FF200530805CC5
:102C7000012801D1002070470B78FF200330805AD3
:102C80001354FF200330805AFF2803D10023C01CB7
:102C9000835207E0FF200330805A401C83B2FF209C
:102CA00003308352FF200130835A801C805A8342B4
:102CB00004D10123FF200530835403E00023FF20CB
:102CC000053083540023FF20063083540120D2E7CF
:102CD00070B504460D46FF2608E09648C07880216E
:102CE0000840002802D1934800F01FF929462046E9
:102CF000FFF7BAFF002804D13046711ECEB200287B
:102D0000EBD18C48C07880210840002802D1894846
:102D100000F00BF970BDF8B507460D4616460020C9
:102D20000090002406E0285D009069463846FFF7D1
:102D3000CFFF641CB442F6DB0120F8BD0246FF2041
:102D40000630805C012801D100207047FF2001304F
:102D5000805A105C0870FF200130805AFF2803D190
:102D60000023401C835207E0FF200130805A401CA2
:102D700083B2FF2001308352FF200130835A801C30
:102D8000805A834204D10123FF200630835403E09C
:102D90000023FF20063083540023FF200530835496
:102DA0000120D2E7FFB581B005460F461446002D3D
:102DB00001D0002F01D105B0F0BD0026B0E0FF200A
:102DC0000330005D030000F0DEFF0705182C4454BB
:102DD00078A7A800A85DFE280ED10021801C015311
:102DE000FE20811C095B821C125B521C831C1A533F
:102DF00060540121001D015590E0A85DFE280BD113
:102E0000811C095B821C125B521C831C1A53605488
:102E10000221001D015503E00021FF200330015570
:102E20007CE0A85D68280FD1A85DFF210131095B16
:102E3000FF220132125B521CFF2301331A536054EC
:102E40000321981C015503E00021FF2003300155A8
:102E500064E0A85DFF210131095BFF220132125BB2
:102E6000521CFF2301331A5360540421981C01554E
:102E700054E0A85DFF210131095BFF220132125BA2
:102E8000521CFF2301331A5360541846005B801E06
:102E9000205C294908801846005B401E205C2749B9
:102EA0000880084600780002234909884018244910
:102EB00008800521981C015530E0A85DFF210131F3
:102EC000095BFF220132125B521CFF2301331A53AC
:102ED00060541B480088401E194908800846008835
:102EE000002818D11846005B401E225C1846005D81
:102EF000C01EC1B2A01CFDF7F4F9012807D10021C2
:102F0000FF200330015520460499884703E0002143
:102F1000FF200330015501E000E000BF00BF761C38
:102F2000BE4200DA4BE700BF45E7C178802211437B
:102F3000C170704700A006400AFDFF1F0CFDFF1F77
:102F400008FDFF1F3E483F4988800120487023202C
:102F500008703D484078202108433B4948700020D4
:102F60003A494862062038490870084640782F21BF
:102F70000840202108433449487000203449087033
:102F800000BF31480079102108400028F9D000BF67
:102F90002D4800790C2108400028F9D1704770B500
:102FA00029480078C0210840002821D1264800780F
:102FB00004210840002815D1264C234800783821E8
:102FC0000840C10801208840C5B22946204600F0CB
:102FD00086F804461E48007804210840002803D0E3
:102FE000640901E00124E40305200002444310E0E9
:102FF00015480078C0210840402801D1440208E06B
:1030000011480078C0210840802801D1114C00E00F
:1030100070BD0D484078E021084041092046C84075
:1030200004460A48406A032212071040000F411C60
:10303000204600F054F80849086000BFE8E70000A7
:1030400003E80000002005400040064000800440E6
:103050000050064000127A0010FDFF1FF8B5042A48
:103060002CD3830712D00B78491C0370401C521ECE
:1030700083070BD00B78491C0370401C521E83073A
:1030800004D00B78491C0370401C521E8B079B0F09
:1030900005D0C91ADF002023DE1B08C90AE0FDF7AE
:1030A0005BF8F8BD1D4608C9FD401C46B4402C43E2
:1030B00010C0121F042AF5D2F308C91A521EF0D408
:1030C0000B78491C0370401C521EEAD40B78491C33
:1030D0000370401C012AE4D409780170F8BD002275
:1030E00003098B422CD3030A8B4211D300239C4645
:1030F0004EE003460B433CD4002243088B4231D3BD
:1031000003098B421CD3030A8B4201D394463FE050
:10311000C3098B4201D3CB01C01A524183098B42B0
:1031200001D38B01C01A524143098B4201D34B0199
:10313000C01A524103098B4201D30B01C01A5241FC
:10314000C3088B4201D3CB00C01A524183088B4283
:1031500001D38B00C01A524143088B4201D34B006C
:10316000C01A5241411A00D20146524110467047DE
:103170005DE0CA0F00D04942031000D340425340E3
:1031800000229C4603098B422DD3030A8B4212D3A3
:10319000FC22890112BA030A8B420CD389019211D5
:1031A0008B4208D3890192118B4204D389013AD012
:1031B000921100E08909C3098B4201D3CB01C01AE7
:1031C000524183098B4201D38B01C01A52414309FA
:1031D0008B4201D34B01C01A524103098B4201D3E8
:1031E0000B01C01A5241C3088B4201D3CB00C01A55
:1031F000524183088B4201D38B00C01A5241D9D26D
:1032000043088B4201D34B00C01A5241411A00D2ED
:103210000146634652415B10104601D34042002BE9
:1032200000D54942704763465B1000D3404201B568
:103230000020C046C04602BD084B70B50D467B4419
:1032400000F013F80446284600F022F8002802D0C7
:103250000020C04370BD204670BD0000610B00001F
:1032600001694A1C02610878704700B58FB002916D
:103270000021059105490193794403911146049079
:10328000684600F01FF90FB000BD0000E5FFFFFF2A
:10329000C06880210840704710B54348542100F0B1
:1032A00007FB4248542100F003FB4148542100F041
:1032B000FFFA40483C493D4B404A01603E480360AC
:1032C0003B4810605A1C0A65411C196501210165C3
:1032D0003C48354A3AA1784400F024FA002804D149
:1032E000384878440C3800F0BFFA38482F4A36A1E5
:1032F000784400F017FA002804D1344878440C3898
:1033000000F0B2FA32482A4A2FA1784400F00AFAB3
:10331000002804D12E4878440C3800F0A5FA402348
:103320002148DC000021224600F0D6F9002804D014
:10333000244878445C3800F097FA1C482246402321
:10334000002100F0C9F9002804D0204878445C38F6
:1033500000F08AFA164822461023002100F0BCF93A
:10336000002804D01A4878445C3800F07DFA10BD7B
:103370000F4870B5006D44080B48640000F046FA31
:103380000A4800F043FA0A4800F040FA09E0206DCC
:10339000450820466D0000F039FA204600F06CF830
:1033A0002C46002CF3D170BDC0070020140800206B
:1033B0006808002014FDFF1F18FDFF1F1CFDFF1FE4
:1033C00072000000E60A000077000000D00A00004A
:1033D000BA0A00000EB50191009000F0FBFB0290CC
:1033E00069460120ABBE0EBD08B5694600900220BB
:1033F000ABBE08BD1FB56B4607C369460520ABBE13
:1034000004B010BD1FB56C460FC469460620ABBEA4
:10341000F6E708B5694600900920ABBE08BD1CB5AB
:1034200000900A2001916946ABBE1CBD704708B5EB
:10343000694600900C20ABBE08BD754600F03AFA14
:10344000AE46050069465346C008C000854618B020
:1034500020B5FCF7AFFF60BC00274908B646002640
:10346000C0C5C0C5C0C5C0C5C0C5C0C5C0C5C0C534
:10347000403D49008D46704770B50446051F00F079
:103480001DFA0068002C1AD0446801E020466468E8
:10349000002C01D0AC42F9D301680A18AA4204D129
:1034A0002A6805468918016000E0456028684119CE
:1034B000A14205D16168696021684018286070BD2B
:1034C0006C6070BDF8B506460024476880680090BF
:1034D0003046F56803E00099B847641C3046A847B9
:1034E0000028F8D12046F8BDF8B505460C46C86856
:1034F0000521C9048843012189050843E06080064D
:1035000002D5204600F024FB7149E0680140022901
:1035100003D0204600F0C6FABCE005210122490391
:103520000140D20391420FD1C00306D56168E06A21
:10353000884200D80846606006E02069E06260606A
:103540006069FFF774FFA061A1680022EEB2002954
:103550000EDAE06883050BD4C943A160092122601B
:1035600049030843E0606068411C61600670ACE09C
:10357000E068012149030843E060002020602069E1
:10358000002831D16069FFF744FF01252746243721
:10359000ED02002816D0A0898005800F08D0E069D0
:1035A00000F0D4F90028206102D0E068284318E038
:1035B00001202761E061E0680321090288430121BD
:1035C00089020DE0E06900F0C1F900282061EFD028
:1035D000E0682843E0608105890F03D1FF210131B4
:1035E0000843E06020696060E2683A4F2569D005D1
:1035F0001FD56168E06A884200D80846411B05D0A3
:103600002246284600F058FA002843D1E06801021B
:1036100004D5E56200206560A06053E0691CE162AA
:103620006160E169491E3843A160E06030462E7058
:10363000F8BD100201D53A4009E06068411C6160A4
:103640000670E06838430A2EE06006D00022E16A86
:103650006068814203D90B4602E00122F7E7034686
:10366000A7895B1B7F0504D4E7699F4201DD002A1F
:103670001ED0814200D801460F1A0020E562656025
:10368000002BA06009DD22461946284600F014FAF6
:10369000002802D00020C043F8BD002F08D0A06948
:1036A000E5626560C01BA061E06810210843E0602E
:1036B000E068000209D56168A069E562491B40180D
:1036C0006560A0610120C043F8BD3046F8BD000030
:1036D000821000000000010070B5C468A50713D077
:1036E000650211D4D51FF93D0AD0FF3D6D1E07D0EC
:1036F000FF3DFF3D022D07D101462431012305E0A6
:10370000074E5D1EB54201D3012070BD0161C3614A
:1037100041600F2109028C431443C460002070BD36
:10372000FFFFFF00F7B516460C46104600F06EF896
:103730002078611C61280AD0722802D0772839D1FC
:1037400002E00125002404E00225042401E02D4DBF
:1037500008240222032301270878491C2B2806D0BD
:10376000622807D02039C87F742807D008E01D439D
:103770001443F1E7042005433C43EDE710200443E4
:1037800000982146FFF726FE411C13D0002131612D
:1037900071600121F5604902F1617061200704D573
:1037A00030460222002100F003F9306D38433065C5
:1037B0003046FEBD0020FEBDF8B50D460646124C53
:1037C000206DC10704D0410804D044086400F7E725
:1037D000224610E0542000F0B9F8070010D0790814
:1037E000206D4900012211430843542120653846C9
:1037F00000F05EF83A4629463046FFF793FFF8BDE1
:103800000020F8BD02800000C0070020FEB504467D
:10381000466900690F4F0190E56800200090A807F5
:1038200007D0204600F06EF93046FFF7DDFD002896
:1038300001DA3846FEBD280502D50198FFF71CFEC7
:103840004C21204600F034F8206D400840002065EF
:103850000098FEBDFFFFFFFF10B50446C046C046FE
:103860002046FCF772FC10BD10B500F099F900F08D
:1038700091F910BD01E004C0091F0429FBD28B0798
:1038800001D50280801CC90700D002707047002952
:103890000BD0C30702D00270401C491E022904D37A
:1038A000830702D50280801C891EE3E70022EEE731
:1038B0000022DFE700487047BC080020004870473E
:1038C000C40800207047704738B504460A460020F7
:1038D0006946C046C046002805D0024620460099E9
:1038E00000F0A7F9012038BD10B5012000F0F6F96D
:1038F00010BDF8B5C046C046054600200C46102055
:10390000C0460646A819A0420DD932466946002095
:10391000C046C046070001D100F0E0F90098A0427F
:1039200000D00546C419FFF7C9FFF61D074605601C
:10393000F008C0004619284600F074F9B44204D0DB
:1039400031463868A21B00F074F9F8BD70B5064620
:10395000FFF7B4FF056830460B30C408E400B442FA
:1039600001D8002070BD68682A46002818D0016878
:10397000A14211D30B46214608318B4208D343683C
:1039800001194B6003681B1B0B605160046001E070
:1039900041685160001D70BD024640680028E6D1B4
:1039A00021462846FFF790FF0028DCD170BD0000BB
:1039B000F8B5044616460D464769007B800730D0AF
:1039C0003846FFF726FD00282BD132461026002A64
:1039D00025D0012A02D0022A23D104E0204600F09B
:1039E00042F945191BE03846FFF721FDE1683143F4
:1039F0000028E16004DA204600F054F80120F8BD08
:103A0000C9030BD56268E16A914200D81146A269E8
:103A100089182269891A814200DD08462D18002D77
:103A200001DA0220F8BDE16A6068E268814206D2EC
:103A30009103E06203D5012149048A433243A66918
:103A4000AE4211DCE16A814201D90B4600E0034637
:103A50009F192369FF1AAF4206DD814201D90F4643
:103A600000E007469F4206D1202002430020A060CC
:103A7000A56220600DE0AD1BE669AE1B8142A66029
:103A800000D90846C01A281A206058196060202002
:103A90008243034802400020E26040342072F8BDB7
:103AA000BFCFD7FFC1688022114392039143C16009
:103AB0000021816001607047F7B514460E46334817
:103AC000D5685769054209D03846A169FFF7A7FCB8
:103AD000002811DB2D48C0430540E5602B463246E7
:103AE00038460099FFF786FC4200A1695208B21AD5
:103AF00089180028A16104D02046FFF7D3FF0020D9
:103B0000C043FEBD70B504460569C06A616888425D
:103B100000D80846E1680522D2049143E160C90358
:103B200014D5A84209D02246411B2846FFF7C4FFFE
:103B3000002802D00020C04370BDE562002065600F
:103B4000A060E068012109048843E060002070BDA6
:103B500010B50446C06820218843E060A16AA069CE
:103B600088420ED02046FFF7CDFFE068032109030D
:103B7000884310210843E060A06AA0612069E062E8
:103B800060600349E0680840E06010BD100002007A
:103B9000BFBFFFFF10B5002801D000F03DF810BDF9
:103BA00010B5014602A000F07FF8012010BD000012
:103BB00053494752545245443A20526564697265EC
:103BC00063743A2063616E2774206F70656E3A20CB
:103BD0000000000030B5441C03E00178401C0029BF
:103BE0000DD08107F9D10B4BDD0104C8D11A9143E7
:103BF0002940FAD0001B0A0603D0C01E30BD001BAE
:103C000030BD0A0401D0801E30BD0902FCD0401E28
:103C100030BD00000101010101491820ABBEFEE7E3
:103C20002600020000210160416080607047102082
:103C3000704710B50346406801E00346406800281D
:103C400001D08842F9D31868C3188B4206D0CB1C28
:103C5000D808C000001D411A521A0146081D0A600A
:103C6000FFF70AFC10BD10B50146C268900703D0EB
:103C7000900607D5886A0AE000F03CF8012101604F
:103C8000881E10BD8B694868C0180B69C01A403186
:103C90000B7A002B02D0497A401A10BD1103FCD5D3
:103CA0000028FADD401E10BD70B505460C460A20FE
:103CB00000E06D1C00F018F8002D06D028780028D0
:103CC000F7D102E0641C00F00FF8002C02D020783D
:103CD0000028F7D10A2000F007F870BD10B500F0F9
:103CE0000DF8FFF757FF10BD08B5694608700320AF
:103CF000ABBE08BD00487047BC08002010B50128C5
:103D000005D0002103A0FFF7CFFF012010BD09A1BE
:103D1000F8E7000053494752544D454D3A204F753E
:103D200074206F662068656170206D656D6F7279B3
:103D3000000000003A2048656170206D656D6F726B
:103D40007920636F727275707465640030B58C1879
:103D50000278401C13071B0F01D10378401C120985
:103D600006D10278401C03E00578401C0D70491C08
:103D70005B1EF9D101E00B70491C521EFBD1A14220
:103D8000E6D3002030BD30B47446641E2578641C30
:103D9000AB4204D3635D5B00E31830BC18471D469B
:103DA000F8E710B58A68002A02DCFFF79DFB10BD1A
:103DB000521E8A604A68C0B2531C4B60107010BD1E
:103DC0003A7474003A7474003A747400EC3D000064
:103DD00000F8FF1F200500004C3D0000083E0000D9
:103DE00020FDFF1F000E00000401000001FF01F68E
:103DF000021D0102FFF401E9520107FFFEFE869158
:083E000092A181B201D340013F
:04000005000000C136
:00000001FF
